S0150000626C696E6B5F73746D333266302E7372656351
S3150800000000200020D5030008250400082504000860
S3150800001000000000000000000000000000000000D2
S315080000200000000000000000000000002504000891
S315080000300000000000000000250400082504000850
S3150800004025040008250400082504000825040008DE
S31508000050250400082504000825040008790300087B
S3150800006000000000250400082504000825040008EF
S3150800007025040008250400082504000800000000DF
S3150800008025040008250400080000000025040008CF
S31508000090250400082504000825040008250400088E
S315080000A0250400082504000825040008250400087E
S315080000B0250400082504000800000000250400089F
S315080000C010B5064C2378002B07D1054B002B02D020
S315080000D0044800E000BF0123237010BD0000002083
S315080000E00000000070040008044B10B5002B03D074
S315080000F00349044800E000BF10BDC04600000000E8
S31508000100040000207004000880B582B000AF020029
S31508000110FB1D1A70FB1D1B787F2B09D8FB1D1B784E
S315080001201A001F231A40044B012191400A001A6045
S31508000130C046BD4602B080BD00E100E090B583B080
S3150800014000AF02003960FB1D1A70FB1D1B787F2B60
S3150800015028D82F4AFB1D1B785BB29B08C0339B002F
S315080001609B58FA1D1278110003220A40D200FF217B
S3150800017091400A00D2431A4011003B689B01FF22B6
S315080001801A40FB1D1B78180003230340DB009A4026
S315080001901F48FB1D1B785BB29B080A43C0339B00B4
S315080001A01A5031E01B4AFB1D1B7819000F230B4020
S315080001B0083B9B0806339B00D31804331B68FA1DBB
S315080001C01278110003220A40D200FF2191400A004A
S315080001D0D2431A4011003B689B01FF221A40FB1DBF
S315080001E01B78180003230340DB009A400948FB1DCF
S315080001F01B781C000F232340083B9B080A43063341
S315080002009B00C31804331A60C046BD4603B090BDB0
S3150800021000E100E000ED00E080B500AF00F004F872
S3150800022000F030F8C046FDE780B500AF134B1A68FA
S31508000230124B01210A431A60C046104B1B68022262
S315080002401340FAD00D4B5A680C4B80218A435A60EA
S315080002500A4B5A68094B0A490A405A60074B5A68BA
S31508000260064B08218A435A60044B5A68034B0421FB
S315080002708A435A60C046BD4680BDC046001002404B
S31508000280FFFBFFFF80B500AF344B5A69334B802123
S3150800029089020A435A61314B5A69304B8021090356
S315080002A00A435A619023DB051A689023DB052C491B
S315080002B00A401A609023DB051A689023DB05802123
S315080002C0C9000A431A60274B1A68264B26490A4072
S315080002D01A60244BDA68234B23490A40DA60214B1B
S315080002E0DA68204B802109050A43DA609023DB058A
S315080002F05A699023DB0520210A435A61174B9A69EC
S31508000300164B01210A439A61184B5A69174BF0217B
S315080003108A435A61154B5A69144B20210A435A617C
S31508000320134B1A68124B802189010A431A60104B35
S315080003309A680F4B802189010A439A600C4BDA6848
S315080003400B4B0C490A40DA6001210720FFF7F6FE3D
S315080003500720FFF7D9FEC046BD4680BD0010024003
S31508000360FFF7FFFF00080048FFFFFFF3000001400A
S3150800037000040140FFDFFFFF80B500AF134B1B7879
S31508000380DBB2012B0CD1114B00221A709023DB052E
S315080003909A699023DB05802189030A439A610AE05A
S315080003A00A4B01221A709023DB059A699023DB0514
S315080003B020210A439A61064B5A69054B8021890117
S315080003C00A435A61C046BD4680BDC0461C0000208F
S315080003D0000401400D48854600E000BF0C480D4961
S315080003E00D4A002302E0D458C4500433C4188C4282
S315080003F0F9D30A4A0A4C002301E013600432A242E8
S31508000400FBD300F011F8FFF707FFFEE700200020F6
S3150800041000000020000000209004000800000020D2
S3150800042020000020FEE7000070B500260C4C0D4D9C
S31508000430641BA410A64209D1002600F019F80A4C3C
S315080004400A4D641BA410A64205D170BDB300EB5833
S3150800045098470136EEE7B300EB5898470136F2E7BE
S3150800046088040008880400088C040008880400082A
S31508000470F8B5C046F8BC08BC9E467047F8B5C046F5
S30D08000480F8BC08BC9E46704753
S30908000488E900000871
S3090800048CC100000895
S705080003D51A
